:1000000000EF08F00000000079EF09F000000000A8
:0A0010000000000000000000F3D71C
:1010000000EC0AF035D96FD9B886020EB06E080E22
:10101000AF6EAC843CD9030E0B6E8A0E0C6E550E6F
:101020000D6E0D2EFED70C2EFCD70B2EFAD700001E
:1010300000002C0E1E6F000E1F6FEAD80D0E0B6EF7
:10104000AF0E0C6EB60E0D6E0D2EFED70C2EFCD70D
:101050000B2EFAD70000F6D80050010A31E1F7D87C
:1010600000C007F1EFD800522BE1010107515A0AE5
:1010700027E0660E1E6F000E1F6FCAD8E3D800501F
:10108000010A03E1E4D800C007F101011A6B1B6BF0
:10109000000E1B5D02E1030E1A5D12E283860D0E47
:1010A0000B6EAF0E0C6EB60E0D6E0D2EFED70C2E07
:1010B000FCD70B2EFAD7000083961A4B1B2BE8D7D0
:1010C000010107515A0A3AE1410E1E6F000E1F6FCF
:1010D0009FD805C11EF106C11FF19AD81C6B1D6B6C
:1010E000000E1D5D02E1030E1C5D13E28390080EED
:1010F0000B6E9D0E0C6E050E0D6E0D2EFED70C2E7A
:10110000FCD70B2EFAD70000000083801C4B1D2B50
:10111000E7D780B003D080B201D00FD080B006D026
:10112000150E1E6F000E1F6F73D807D080B205D04A
:10113000920E1E6F000E1F6F6BD821D01A6B1B6BA7
:10114000000E1B5D02E1030E1A5D17E28380DF0EC5
:101150001E6F000E1F6F5CD883900D0E0B6EAF0ECE
:101160000C6EB60E0D6E0D2EFED70C2EFCD70B2E70
:10117000FAD700001A4B1B2BE3D71A6B1B6B80B0FE
:101180003CD080B23AD007515A0A37E1F00E1E6FB8
:10119000000E1F6F3DD8010E186F000E196F83826D
:1011A0008384185119111EE00751580A1BE04AD8D0
:1011B0000050010A03E14BD800C007F1C40E010141
:1011C0001E6F000E1F6F24D81A0E0B6E5E0E0C6E73
:1011D0006E0E0D6E0D2EFED70C2EFCD70B2EFAD7F1
:1011E0000000DFD70751580A07E1186B196BAB0EE7
:1011F0001E6F000E1F6F0CD802D0839283942BD7E2
:02120000FFD716
:0E120200ACB202D00000FCD722C1ADFF12003A
:101210000101216B1EC1E9FF1FC1EAFFEECF20F1E2
:101220002051000A0EE020C122F1EBDF0101212B49
:1012300021511E25E96E000E1F21EA6EEECF20F12E
:04124000EFD71200D2
:0A124400000E9EBA010E006E1200AB
:10124E00AECF01F0ABA202D0AB98AB8801C000F0DC
:02125E0012007C
:101260000900F5CFE6FF0006FBE10106F9E11200F7
:10127000800E946E0F0EC112070EB412FF0E926E06
:0E128000936A956A966A816A836A846A12008C
:10128E00020E0101086F120E096F220E0A6F010E77
:10129E000B6F4E0E146F120E156F000E166F000EA2
:1012AE00176F440E106F120E116F000E126F000E9C
:1012BE00136FFF0E0C6FFF0E0D6F000E0E6F000EF4
:1012CE000F6FAC8A900EAB6E948E949C9EAA03D038
:0812DE00AECF00F0FBD71200B7
:0C12E600D09EF28EF28CF288F292120080
:1012F200F2A20CD0070E0101056F010E066F05C1A7
:0E130200E1FF06C1E2FF580EE66EF292110006
:1014000010EE15F0F00E006E010E016E100EF66E6D
:0E141000130EF76E000EF86E30EC09F01200AD
:10131000416775617264616E646F20706F72746191
:071320002E2E2E200D0A0005
:10132700496E696369616E646F2073697374656D73
:05133700610D0A000039
:10133C004F206461646F206465206163696F6E6126
:10134C006D656E746F20666F692072656365626986
:05135C00646F0D0A00A2
:10136100416C67756D206572726F206F636F727269
:101371006575206E6F2070726F636573736F206483
:0C1381006520636F6E6578E36F0D0A0055
:10138D00416775617264616E646F2069676E69E7AC
:09139D00E36F2E2E2E200D0A0034
:1013A60053697374656D6120656D20626C6F71752C
:0913B6006561646F2E200D0A0030
:1013BF0053697374656D6120656D2066756E636921
:0B13CF006F6E616E646F2E200D0A002F
:1013DA0057616974696E67207374617274200D0AAB
:0113EA000002
:1013EB0053697374656D612070726F74656769649E
:0513FB006F200D0A0047
:020000040030CA
:0E000000000C191EFF0381FF0FC00FE00F4020
:00000001FF
